:020000040000fa
:080000000001040000000000f3
:020000040000fa
:10000800c8060000c8060000c8060000c8060000b0
:10001800c8060000c8060000c8060000c8060000a0
:10002800c8060000c8060000c806000094010000c9
:10003800c8060000c8060000aa010000c8060000a3
:10004800c806000070020000c80600008802000010
:10005800c8060000c8060000c8060000c806000060
:10006800c8060000c8060000c8060000c806000050
:10007800c8060000ba010000d6010000c80600004a
:10008800f2010000c8060000c8060000c80600000b
:10009800c8060000c8060000c8060000c806000020
:1000a800c8060000c8060000c8060000c806000010
:1000b800c8060000c8060000c8060000c806000000
:1000c800c8060000c8060000c8060000c8060000f0
:1000d800c8060000c8060000c8060000c8060000e0
:1000e800c8060000c8060000c8060000c8060000d0
:0800f800c8060000c806000064
:020000040000fa
:10010800c8060000c8060000c8060000c8060000af
:10011800c8060000c8060000c8060000c80600009f
:10012800c8060000c8060000c806000094010000c8
:10013800c8060000c8060000aa010000c8060000a2
:10014800c806000070020000c8060000880200000f
:10015800c8060000c8060000c8060000c80600005f
:10016800c8060000c8060000c8060000c80600004f
:10017800c8060000ba010000d6010000c806000049
:10018800f2010000c8060000c8060000c80600000a
:10019800c8060000c8060000c8060000c80600001f
:1001a800c8060000c8060000c8060000c80600000f
:1001b800c8060000c8060000c8060000c8060000ff
:1001c800c8060000c8060000c8060000c8060000ef
:1001d800c8060000c8060000c8060000c8060000df
:1001e800c8060000c8060000c8060000c8060000cf
:0801f800c8060000c806000063
:020000040000fa
:100200004f8320000eff20000e0188000000000038
:1002100000012000200288000c00070000bf200021
:100220000100200011000700000020000000e00095
:100230000200320000000200000000004c04020036
:10024000000000000040da000000fe004440a90069
:10025000000320000000e000030032000000200046
:10026000a00188004440a800000006009101880019
:10027000800078000000eb0015003700e2804000ad
:1002800032a0b4009101ba00e280400032a0b40074
:100290009102ba00e280400032a0b4000002eb00fc
:1002a000472bde00f507b200602ce10004003a00a5
:1002b0000059eb008301e900fdff3e000400370018
:1002c0006128e100010032000082eb000400070019
:1002d0001101ba000200e000e8ff3a000000060049
:1002e0003159ba008301e9000c0032002159ba00eb
:1002f0008301e900080032000400e00003003a0036
:10030000e280400032a0b400f5ff370011d9ba00f6
:100310008301e900faff3a008100e800e180400033
:1003200032a0b40000000600841f78000000fa002c
:100330000002eb0004088800144080000402e8007a
:10034000144088008460a9000080fa004f02780001
:1003500000400600841f78000000fa000002eb0055
:100360003408880084c0a9000080fa004f02780099
:1003700000400600801f7800841f78000000fa000b
:100380000002eb00a4088800e0c2a90014c0b3007a
:10039000044078001ae8b70086a0a9000080fa009f
:1003a0004f0278004f00780000400600801f780060
:1003b000841f78000000fa000002eb00c4088800e7
:1003c000c842a90014c0b300044078001be8b7007d
:1003d00086c0a9000080fa004f0278004f00780024
:1003e000004006003600f800809fbe00829fbe00dd
:1003f000849fbe00869fbe000000fa008700a9000f
:10040000e4108000044278000440780001e8b7005e
:100410001480200014427800ea4f52000400320099
:100420001480200014427800ed4f520019003a0069
:100430004541800044812000848242000042eb005c
:10044000844a7800c1902800408120006b03070097
:1004500000027800e00f520003003a001400200070
:1004600024418800080037002191280040812000a5
:100470006203070000027800e00f520002003a0019
:1004800014002000344188000002eb004441880041
:100490000c00370044418000e40f520009003e0088
:1004a00046418000148020001442780045812000dd
:1004b00085024300844a7800444180000402e80039
:1004c000444188000080fa004f03be004f02be0086
:1004d0004f01be004f00be003600f900004006008c
:1004e000801f7800841f78000000fa008520a90092
:1004f00094108000044278000440780000e8b700bf
:100500000080fa004f0278004f007800004006009b
:10051000841f78000000fa00041480002440880042
:100520001414800034408800241480004440880063
:1005300034148000544088008560a9000080fa00cf
:100540004f027800004006000000fa00a802a9004f
:10055000a822a900a8a2a900a862a900c602a80012
:10056000c622a800c6a2a800c662a800d242a9005e
:10057000dec2a800d262a900a842a800c642a80014
:10058000de42a900de62a900a942a800c742a90074
:10059000a962a800c762a900d222a900d202a900bc
:1005a0000080fa00000006000200fa00000f780048
:1005b0000002eb001440880005e1a80000000000e4
:1005c0009e02780014408000848f5200fcff3e00a1
:1005d00005e1a9000080fa00000006000800fa000a
:1005e00020079800310798006022b800048fbe00f1
:1005f0000400370014002000050020001e0f4200f8
:100600005e974a002e029000be0290001e03be00bc
:10061000840f5300858f5b00f6ff39000080fa00dd
:10062000000006000200fa00d642a80030002000b8
:10063000ddff0700d642a90030002000daff0700e6
:1006400000000000051780000404200004826200fe
:10065000e00f5200fbff32000002eb00a40888000c
:1006600086a0a9001fe1a800000000000517800077
:100670000404200004826200e00f5200fbff3a00f5
:100680001fe1a900a481200014427800e14f52002c
:1006900006003a00841a2600040f78000042eb009e
:1006a000044078001ae8b70002003700a408800070
:1006b000040f78000002eb00a40888001e027800f6
:1006c000050020000400be00f90107000002be0082
:1006d000d2cc2c00c3dc23000400be00340207008f
:1006e0000002be0002002000030024000400be003f
:1006f000a90107000002be0082e22700c3d0230048
:100700000400be002a0207000002be00e440880088
:10071000f54088000080fa00000006000200fa00a0
:10072000d662a800300020009fff0700d662a90013
:10073000300020009cff07000000000044168000ed
:1007400064026200e00f5200fcff32000002eb0086
:10075000c408880086c0a90021e1a80000000000ac
:100760004416800064026200e00f5200fcff3a0071
:1007700021e1a900b481200014427800e14f520029
:1007800006003a00841a2600040f78000042eb00ad
:10079000044078001be8b70002003700c40880005e
:1007a000040f78000002eb00c40888001e027800e5
:1007b000050020000400be00bd0107000002be00cd
:1007c000d2cc2c00c3dc23000400be00f8010700db
:1007d0000002be0002002000030024000400be004e
:1007e0006d0107000002be0082e22700c3d0230093
:1007f0000400be00ee0107000002be0004418800b4
:10080000154188000080fa00000006000000fa0090
:10081000e242a900e262a800cb62a800cb42a90094
:100820000080fa00000006000000fa00e242a80082
:10083000e262a900cb62a900cb42a8000080fa00c6
:10084000000006000000fa00e242a800e262a900ef
:10085000cb62a800cb42a9000080fa00000006008d
:100860000000fa00e242a900e262a800cb62a900ff
:10087000cb42a8000080fa00000006000000fa0049
:10088000e242a900e262a900cb62a900cb42a90022
:100890000080fa00000006000400fa00881f7800bb
:1008a000000f78001107980027ff07005703070083
:1008b0007e020700700207008e03070098030700fe
:1008c000a2030700ac03070070912800ba020700da
:1008d000d000200095020700010037000000000052
:1008e0002440800004007800ce0307000002780056
:1008f000744088003440800004007800c903070079
:100900000002780094408800444080000400780091
:10091000c40307000002780064408800544080004f
:1009200004007800bf0307000002780084408800bc
:1009300024418000e10f520001013a00344180005f
:10094000e00f5200fe003a0054418000e00f5200d8
:1009500008003a003092280097020700d0002000db
:100960007202070014002000544188000002eb00ce
:100970006441880074408000e10f520035003a0065
:1009800034418000e00f520032003a0025ff07009a
:10099000e4408000f540800018c0b3000200200051
:1009a000031524000400be003f0107000002780088
:1009b000e00f520001003c000044eb00e04f540007
:1009c0002200320098ff07000f00370015ff0700d4
:1009d000e4408000f540800018c0b3000200200011
:1009e000031524000400be002d010700000278005a
:1009f000e00f5200010035000044eb00e04f5400ce
:100a0000010032009dff0700e4408000f5408000b7
:100a100018c0b30002002000031524000400be002b
:100a20002101070000027800e00f520001003d00a4
:100a30000044eb00e04f5400b80032003441800025
:100a4000e00f5200e1ff3200bb0037008bff0700d0
:100a5000b900370094408000e10f520039003a009d
:100a600034418000e00f520036003a007cff07005e
:100a7000801e2c00a1002000d8fe070027ff0700e1
:100a8000044180001541800018c0b300020020001e
:100a9000031524000400be000301070000027800d3
:100aa000e00f520001003d000044eb00e04f540015
:100ab0002200320055ff07000f00370017ff070024
:100ac000044180001541800018c0b30002002000de
:100ad000031524000400be00f100070000027800a6
:100ae000e00f5200010035000044eb00e04f5400dd
:100af0000100320061ff07000441800015418000c1
:100b000018c0b30002002000031524000400be003a
:100b1000e500070000027800e00f520001003d00f0
:100b20000044eb00e04f54007e003200344180006e
:100b3000e00f5200e1ff32007f0037004fff070057
:100b40007d00370064408000e10f520035003a001c
:100b500034418000e00f520032003a00effe0700ff
:100b6000044180001541800018c0b300020020003d
:100b7000031524000400be00cb000700000278002b
:100b8000e00f520001003c000044eb00e04f540035
:100b9000220032001dff07000f003700dffe0700b4
:100ba000044180001541800018c0b30002002000fd
:100bb000031524000400be00b900070000027800fd
:100bc000e00f5200010035000044eb00e04f5400fc
:100bd0000100320029ff0700044180001541800018
:100be00018c0b30002002000031524000400be005a
:100bf000ad00070000027800e00f520001003d0048
:100c00000044eb00e04f54004800320034418000c3
:100c1000e00f5200e1ff32004700370017ff0700e6
:100c20004500370084408000e10f520039003a004f
:100c300034418000e00f520036003a0001ff070007
:100c4000801e2c00a100200064fe0700b3fe0700f8
:100c5000044180001541800018c0b300020020004c
:100c6000031524000400be008f0007000002780076
:100c7000e00f520001003d000044eb00e04f540043
:100c800022003200e1fe07000f003700a3fe07003c
:100c9000044180001541800018c0b300020020000c
:100ca000031524000400be007d0007000002780048
:100cb000e00f5200010035000044eb00e04f54000b
:100cc00001003200edfe0700044180001541800064
:100cd00018c0b30002002000031524000400be0069
:100ce0007100070000027800e00f520001003d0093
:100cf0000044eb00e04f54000e003200344180000d
:100d0000e00f5200e1ff32000b003700dbfe07006e
:100d100009003700d9fe0700070037000000000077
:100d2000050037000000000003003700000000004d
:100d3000010037000000000000000000e8fe37005e
:100d400034418000e10f5200e4fe3a00644180002b
:100d5000e00f520008003a000093280096010700b7
:100d6000d0002000710107001400200064418800b9
:100d70000002eb0054418800c0fe07000002eb00b7
:100d8000344188000002eb0024418800d4fe370083
:100d90000040da000000fe00889fbe008a9fbe006f
:100da0008c1f78006a0007007100330003866c0016
:100db0006450e1002e0032006420e1003300320074
:100dc0006150e1002f0032006120e100310032006b
:100dd00085855500eb07b0000900200008042000bd
:100de000050037000804440089844c000a003100e3
:100df0000603430087834b000001530081815b00a1
:100e0000f8ff33000203be000800a00008044400fd
:100e100089844c00f6ff3900c639dd008301730078
:100e200001003200130020008904d1000884d3009f
:100e30000998a300050032000800a7000300a000e5
:100e40008904d1000884d3008b05e8008904d1000f
:100e50000884d3000001eb000281d20016000700d5
:100e600001f0a1000cf0a70001f0a000490037003c
:100e70006420e1004b0032000801be000200be0009
:100e8000f7ff37006120e100460032006000b80043
:100e9000f3ff37000000200001f82700f0ff3700c3
:100ea0001400200076003700f4ff2f007400370094
:100eb0006011b8008d00370081002000618055006e
:100ec0000b003d000b00200061fe2f000100e1003f
:100ed0001d00340082817100610164008904d10029
:100ee0000884d3000000e800faff3a0071002000f7
:100ef000610064000300700002006000090032001d
:100f000061044400e0844c000988a500050032001b
:100f10008b05e8006808e10002003a008904d1006e
:100f20000884d300f20f20000258e10005003d00c4
:100f3000c75ddd00f907b200898075000800780000
:100f4000000006000bf827008b0078000000050069
:100f50000004be00940007000003be000405be00ac
:100f60000200be0090000700844f750000000600dc
:100f70000200be006450e100050036006420e1007c
:100f8000020036000968a30001003a000800be0014
:100f90000160a0004f0678004f05be004f04be0060
:100fa00000000600f0ff2f00f1ff2700f9ff3700d7
:100fb000889fbe008a9fbe008c1f7800e4ff070058
:100fc000ebff330003866c006450e1002400320024
:100fd0006420e100270032006150e100220032006d
:100fe0006120e100210032008b854200eb07b10057
:100ff0000134b800003ab8000804420089844a006d
:10100000013ab8000030b8008880400009014a0069
:1010100004003300000040008180480002014900c4
:101020008b05e900c909dd00830170000100320071
:1010300013002000c814de004814dd004709de005c
:101040001200b200c808de00088470009aff070092
:1010500001f0a1000cf0a70001f0a000cdff3700c7
:101060006120e100cfff32000801be000200be0097
:10107000f7ff37006150e100fcff3a00c9ff37007d
:10108000889fbe008a9fbe00841f7800b0ff0700c3
:101090004f00780011003300f0ff2f00838f6c00a9
:1010a00006003b00040565000a00a70008003700a1
:1010b00009f0a6001000200008003700820f54003d
:1010c000838f5c00030039001000200001003e0007
:1010d0000000200009f0a7000000ea004f05be0054
:1010e0004f04be000000e00000000600889fbe0024
:1010f0008a9fbe00008270000402710004827100a9
:10110000260032000004be000200be006011b800dc
:101110006b092000950220000182cf000a003900ef
:101120000541b1000082cf00070039000541b10040
:101130000982cf00040039000541b1000882cf00c8
:10114000010039000541b100054252001200320091
:101150000a003b0082817100610164008100d100be
:101160000080d3008984d3000884d3008b05e80075
:101170000442e800f7ff3a00070037000804440083
:1011800089844c0000004800818048008b05e900fc
:101190000442e900f9ff3a0047ff07004f05be008f
:1011a0004f04be0000000600c70ade00f107b200cf
:1011b000f50fb20008003200e1cf42000200320019
:1011c0000170a00024000500810f700001003200b2
:1011d0000408050044000500810f700002003a0079
:1011e000140005008502e9000000400081c04800ad
:1011f000fcff3b000170a00024000500b042780015
:1012000031c2520002003a00e0cf5200fbff3a0028
:081210000400fb0000000600d1
:020000040000fa
:101218005354000041520000540000005354000091
:101228004f5000000057000072690000746500000c
:1012380020530000544100005254000000540000a4
:10124800656e00006b20000075700000616c000086
:101258006a6500006e000000546500006e6b0000b7
:101268002075000067610000736500006e000000d3
:020000040000fa
:101278000000fa0004042000a41088000d42a80011
:101288008d20a80075108000c4ff2f000482620022
:10129800741088000de2a8000f42a8000080fa0030
:1012a800000006000000fa0004042000f410880082
:1012b8008f00a800c5108000c4ff2f0004826200c0
:1012c800c410880017e2a8001942a8000080fa009c
:1012d800000006000200fa00000f7800000000007d
:1012e800751080000410200004826200e00f520094
:1012f800fbff32006410800066026200e60f5200b5
:1013080003003a001e0278008410880003003700aa
:10131800f40f20001e026200841088000080fa008a
:10132800000006000200fa00000f7800000000002c
:10133800c51080000410200004826200e00f5200f3
:10134800fbff3200b410800066026200e60f520014
:1013580003003a001e027800d4108800030037000a
:10136800f40f20001e026200d41088000080fa00ea
:10137800000006000000fa00881f780000047800ca
:1013880005003700184278000402fb000804e80052
:1013980004007800cfff070018427800e04f5200a1
:1013a800f8ff3a004f0478000080fa0000000600b9
:1013b8000000fa00881f7800000478000500370054
:1013c800184278000402fb000804e80004007800d2
:1013d800d4ff070018427800e04f5200f8ff3a00a7
:1013e8004f0478000080fa00000006000400fa00ac
:1013f800100798009e029000843e2000110009000a
:101408008482d80000027800044f78009e42780059
:101418000582fb000403b00004007800adff07005c
:101428001e4078008082fb0084c12f0004aab90006
:10143800040278009e02900004824200140798007b
:101448009e02900044062000110009008482d80002
:1014580000027800044f78009e4278000582fb0065
:101468000403b000040078009aff07001e407800cb
:101478008082fb00c4f92f0004aab9000402780096
:101488009e02900004824200140798009e02900079
:10149800a4002000110009008482d800000278000e
:1014a800044f78009e4278000582fb000403b000d8
:1014b8000400780087ff07001e4078008082fb0048
:1014c80064ff2f0004aab900040278009e0290006d
:1014d80004824200140798001e0290000403b00022
:1014e800040078007bff0700d000200079ff070088
:1014f8000080fa00000006000400fa0010079800b7
:101508009e029000843e2000110009008482d800c9
:1015180000027800044f78009e4278000582fb00a4
:101528000403b000040078007eff07001e40780026
:101538008082fb0084c12f0004aab900040278004d
:101548009e02900004824200140798009e029000b8
:1015580044062000110009008482d80000027800a7
:10156800044f78009e4278000582fb000403b00017
:10157800040078006bff07001e4078008082fb00a3
:10158800c4f92f0004aab900040278009e02900052
:1015980004824200140798009e029000a4002000d4
:1015a800110009008482d80000027800044f7800f6
:1015b8009e4278000582fb000403b0000400780016
:1015c80058ff07001e4078008082fb0064ff2f0050
:1015d80004aab900040278009e0290000482420026
:1015e800140798001e0290000403b000040078005d
:1015f8004cff0700d00020004aff07000080fa00d7
:10160800000006000000fa00a1a2a900041580004d
:101618000480a1000490a10004158800041580002e
:101628000450a0000460a0000470a0000415880005
:10163800a022a8001415800004d0a00004e0a00097
:1016480004f0a00014158800a342a8001415800017
:101658000420a0000430a0000440a1000450a10010
:1016680014158800a222a900a202a900251580004d
:1016780004f021000482720024158800a4e2a80066
:101688002515800004fc2f0004826200f401b300d9
:1016980024158800a782a900a682a9003415800015
:1016a8000400a1000410a1000420a1000430a1003e
:1016b80034158800341580000480a1000490a1002e
:1016c80004a0a10004b0a10034158800b4022000d1
:1016d80054158800a042a8008560a8008d60a80065
:1016e800a1e2a8000080fa00000006000000fa004d
:1016f8000002eb0004088800a400200014088800f9
:101708000421a9008460a9008c60a80005e1a90053
:101718000080fa00000006000000fa000002eb005a
:10172800a4088800841a2600d40888001e21a9006d
:1017380086a0a9008ea0a8001fe1a9000080fa00d9
:10174800000006000000fa000002eb00c408880050
:10175800841a2600e40888002021a90086c0a90070
:101768008ec0a80021e1a9000080fa000000060050
:101778000000fa00341f200064088800440120009b
:10178800040c8800840c2000140c880064ff2d00d1
:10179800240c880044012000340c8800840c2000ac
:1017a800440c880064ff2d00540c880011e1a80047
:1017b800c417200074418800c417200084418800a1
:1017c80074418000040c880084418000340c880037
:0817d8000080fa000000060089
:020000040000fa
:1017e00000080000240000000000000024080000a1
:1017f0000a000000020000000000000000000000dd
:10180000000000000000000032080000020000009c
:10181000000000002e08000004000000000000008e
:0418200000000000c4
:020000040000fa
:101824000200fa00000f7800f44a20009e027800bb
:10183400848f520002003e00140020000100370093
:101844000002eb00040078000080fa0000000600ab
:020000040000fa
:0200000401f009
:04000000e5bf000058
:020000040000fa
:0200000401f009
:04000400ff7f00007a
:00000001FF
